:020000040800F2
:10000000B004002001010008C31100084F100008CF
:10001000C11100086D01000859150008000000001A
:10002000000000000000000000000000C7110008F0
:100030006F01000800000000C5110008C911000888
:100040001B0100081B0100081B0100081B01000820
:100050001B0100081B01000871010008770100085E
:100060001B0100081B0100081B0100081B01000800
:100070001B0100081B0100081B0100081B010008F0
:100080001B0100081B0100081B0100081B010008E0
:100090001B0100081B0100081B0100081B010008D0
:1000A0001B0100081B0100081B0100081B010008C0
:1000B0001B0100081B0100081B0100081B010008B0
:1000C0001B0100081B0100081B0100081B010008A0
:1000D0001B0100084D1500081B0100081B0100084A
:1000E0001B0100081B0100081B010008DFF80CD0F1
:1000F00000F02AF80048004799150008B0040020D5
:100100000648804706480047FEE7FEE7FEE7FEE7B1
:10011000FEE7FEE7FEE7FEE7FEE7FEE70F12000858
:10012000ED000008D2B201E000F8012B491EFBD21D
:1001300070470022F6E710B513460A4604461946F2
:10014000FFF7F0FF204610BD064C074D06E0E068C3
:1001500040F0010394E8070098471034AC42F6D30E
:10016000FFF7C8FF5416000874160008FEE7704732
:10017000012000F06FB8022000F06CB8704700005A
:1001800010B590F821100024022903D004218163C6
:1001900001243DE001680A6822F00E020A6001684D
:1001A0000A6822F001020A601A4A0168914201D1EC
:1001B000012121E0174A1432914201D110211BE0A4
:1001C000144A2832914201D1891515E0114A3C3276
:1001D000914201D189140FE00E4A5032914202D16E
:1001E0004FF4803108E00B4A6432914202D14FF45F
:1001F000801101E04FF08071064A083A51600121F8
:1002000080F82110002180F82010416B01B188474F
:10021000204610BD0800024070B5044600F01CF9ED
:100220000546601C02D004480078044400F014F92C
:10023000401BA042FAD370BD0800002001220449EF
:10024000012803D0022800D14A7070470A70704715
:1002500000000020044910B50A68024202D008607C
:10026000FFF7ECFF10BD0000140401402DE9F84F2A
:10027000DFF8B891002409F1040A0AF1040B2346BF
:100280000F270BF1040EC9E00125A5402A40AA4220
:100290007DD1674ED1F804C0ACEB0608B44532D02E
:1002A00014DCBCF1030F3AD009DCBCF1000F2AD0FA
:1002B000BCF1010F1CD0BCF1020F31D11DE0BCF12B
:1002C000110F17D0BCF1120F2AD119E0B8F5881F11
:1002D00019D006DCB8F5803F15D0B8F5801F1FD1C6
:1002E00011E0B8F5001F0ED0B8F5041F18D10AE0D0
:1002F000CB6815E0CB681B1D12E0CB6808330FE01C
:10030000CB680C330CE08B682BB1012B4FF008034A
:1003100003D0456104E0042302E0056100E000230E
:10032000FF2A01D8064601E000F104064FEA8405E1
:1003300001D9A5F12005D6F8008007FA05FC28EAC6
:100340000C0803FA05F548EA0508C6F800804D6870
:10035000ED0062D5374DAE6946F00106AE61AD697C
:1003600024F0030605F001050095334D06EB050C5E
:10037000DCF80850A607360F07FA06F825EA080544
:10038000DFF8B880404503D14FF0000817E044E0A3
:10039000DFF8AC80404502D14FF001080FE0DFF8F4
:1003A000A480404502D14FF0020808E0DFF89880B1
:1003B000404502D14FF0030801E04FF0040808FA6D
:1003C00006F848EA0508CCF808804D68D9F80060BE
:1003D000ED034D4601D5164300E096432E604D686F
:1003E000DAF80060AD03554601D5164300E09643A8
:1003F0002E604D68DBF80060ED025D4601D51643C6
:1004000000E096432E604D68DEF80060AD02754650
:1004100001D5164300E096432E60641C0D682A4601
:10042000E5407FF431AFBDE8F88F000000040140E3
:1004300000001110001002400000014000080140BF
:10044000000C014000100140001401400AB101619C
:1004500070470904FBE7000001488068704700000E
:1004600008000020024881680278114481607047CA
:1004700008000020074810B5016841F01001016034
:10048000032000F075F8002000F006F800F024F8D2
:10049000002010BD0020024070B50D4D04464FF401
:1004A0007A712878B1FBF0F00A490968B1FBF0F0E5
:1004B00000F0ECFA48B9102C07D200222146501E59
:1004C00000F036F800206C6070BD012070BD0000A7
:1004D00008000020140000200C4808B5816941F094
:1004E00001018161816901F001010091C16941F05F
:1004F0008051C161C06900F080500090044841689B
:1005000021F0E06141F00071416008BD001002403F
:1005100000000140002809DB00F01F02012191408A
:100520004009800000F1E020C0F800117047000091
:10053000F0B40E4B1B680C46C3F30223C3F107054E
:10054000042D00D90425191D072901D2002300E03C
:10055000DB1E012606FA05F1491E214099409E4006
:10056000761E16403143F0BC00F0F7BF0CED00E002
:10057000064900F0070208684FF6FF03184040EAFA
:100580000220034A10430860704700000CED00E0B1
:100590000000FA052DE9F0470F46050061D0434EF3
:1005A000306800F00700B84209D2306820F0070038
:1005B00038433060306800F00700B84251D12868F5
:1005C0003B4C810712D5400703D5606840F4E060DA
:1005D00060602878000703D5606840F46050606070
:1005E0006068A96820F0F000084360602878C007C0
:1005F00028D06868012810D02168022810D0890707
:1006000000292EDA616821F0030101436160FFF7E0
:1006100023FF804641F288390DE021688903EFE726
:100620008901EDE7FFF718FFA0EB0801494502D962
:100630000320BDE8F0876068696800F00C00B0EB4B
:10064000810FEFD1306800F00700B8420BD9306855
:1006500020F0070038433060306800F00700B842EF
:1006600001D00120E5E72878400705D56068E968F2
:1006700020F4E060084360602878000706D56068D1
:10068000296920F4605040EAC100606000F038F849
:100690006168084AC1F30311515CC840064908600B
:1006A00006480068FFF7F8FE0020C2E7002002407D
:1006B000001002403C160008140000200C0000202E
:1006C0000448054900684968044AC1F30221515CA5
:1006D000C840704714000020001002404C1600086B
:1006E0000448054900684968044AC1F3C221515CC5
:1006F000C840704714000020001002404C1600084B
:1007000012A185B00FC98DE80F0014A0144A00682B
:1007100004905168134801F00C03042B10D0082BEF
:100720000ED1C1F38343C9031DF803000AD55168F4
:1007300004AAC1F34041515C0A4A5043B0FBF1F0B6
:1007400005B0704708494843FAE700000203040572
:10075000060708090A0B0C0D0E0F1010010200000D
:100760000010024000127A0000093D002DE9F84F08
:10077000040070D02078C04DC00749D06868C0F32D
:100780008100012807D06868C0F38100022809D1E0
:100790006868C00306D52868800339D560680028DA
:1007A000E7D035E06068B0F5803F0BD010B1B0F510
:1007B000A02F11D0286820F480302860286820F409
:1007C000802002E0286840F480302860606890B1A2
:1007D000FFF742FE06460AE0286840F480202860C1
:1007E000F0E700BFFFF738FE801B642873D8286845
:1007F0008003F7D50CE0FFF72FFE064605E000BFAB
:10080000FFF72AFE801B6428F0D828688003F7D4FD
:1008100020789A4E80074FF001094FF0000839D533
:10082000686810F00C0F07D06868C0F381000228D8
:1008300009D16868C00306D42868800714D52069E8
:10084000012808D110E02069B0B1C6F80090FFF788
:1008500003FE074605E00AE1FFF7FEFDC01B022884
:10086000C4D828688007F7D52868616920F0F800A7
:1008700040EAC10028600DE0C6F80080FFF7ECFDFB
:10088000074604E0FFF7E8FDC01B022823D82868CC
:100890008007F7D4207800072CD57948A169D9B111
:1008A000C0F80090FFF7D8FD074604E0FFF7D4FD3D
:1008B000C01B02280FD8686A8007F7D571484FF42B
:1008C000FA510068B0FBF1F0009000BF0098411EA3
:1008D0000091FAD20EE080E0C0F80080FFF7BCFD86
:1008E000074604E0FFF7B8FDC01B022875D8686A08
:1008F0008007F7D42078400760D5E8690027C0005A
:1009000008D4E86940F08050E861E869012700F008
:10091000805000905C480168C90513D40168834683
:1009200041F480710160FFF797FD824606E000BF49
:10093000FFF792FDA0EB0A0064284ED8DBF8000018
:10094000C005F5D5E06801280AD008B1052813D004
:10095000286A20F001002862286A20F0040002E0E2
:10096000286A40F001002862E06841F2883B98B1B3
:10097000FFF772FD82460BE0286A40F0040028620F
:10098000EEE700BFFFF768FDA0EB0A0159455AD812
:10099000286A8007F6D50CE0FFF75EFD824605E089
:1009A000FFF75AFDA0EB0A0159454CD8286A800789
:1009B000F6D41FB1E86920F08050E861E06988B39F
:1009C0006968C1F38101022944D00228C6F8608019
:1009D00004D0FFF741FD044638E034E0FFF73CFD6A
:1009E000074604E0FFF738FDC01B02282BD8286813
:1009F0008001F7D4206AB0F5803F05D16868A1680E
:100A000020F4003008436860D4E9080108436968AD
:100A100021F4741108436860C6F86090FFF71CFD6C
:100A2000044606E025E000BFFFF716FD001B022884
:100A300009D828688001F7D51BE000BFFFF70CFD3F
:100A4000001B022802D90320BDE8F88F2868800126
:100A5000F4D40EE00128F7D06868226A00F48031EF
:100A6000914204D1616A00F47010884201D00120E3
:100A7000EAE70020E8E700000010024000004242E0
:100A800080044242140000200070004010B5401E57
:100A9000B0F1807F01D3012010BD4FF0E0246061F0
:100AA0000F21601700F059FD0020A0610720206190
:100AB000002010BD70B590F83C20012A26D00124FA
:100AC00080F83C40022280F83D2003685A689D6807
:100AD00022F070060A6832435A600D4B02689A424F
:100AE00008D0B2F1804F05D00A4B9A4202D00A4B8F
:100AF0009A4204D1496825F080031943916080F837
:100B00003D40002180F83C10084670BD022070BDB9
:100B1000002C0140000400400008004000B585B0F2
:100B20000021009101910291039100680F498842D0
:100B30001AD10F48816941F00801816180696946D5
:100B400000F00800049030200090022001900390F3
:100B50000848FFF78BFB0848416821F4406141F0E9
:100B6000E06141F40061416005B000BD0004004057
:100B700000100240000C01400000014070B5044626
:100B800090F83C000D4601280AD0012084F83C0072
:100B900042B1042A18D0082A2AD00C2A4DD139E0B3
:100BA000022070BD206800F077FB2068816941F069
:100BB000080181612068816921F004018161206858
:100BC00081692A69114311E0206800F08DFB2068DB
:100BD000816941F4006181612068816921F480614B
:100BE0008161206881692A6941EA0221816124E0EA
:100BF000206800F0A5FB2068C16941F00801C161CF
:100C00002068C16921F00401C1612068C1692A69B5
:100C1000114311E0206800F0BFFB2068C16941F476
:100C20000061C1612068C16921F48061C1612068EF
:100C3000C1692A6941EA0221C161002084F83C00AF
:100C400070BD10B5040003D094F83D0010B107E06A
:100C5000012010BD002084F83C00204600F01EF862
:100C6000022084F83D00211D206800F0D1FA012007
:100C700084F8460084F83E0084F83F0084F8400081
:100C800084F8410084F8420084F8430084F844006A
:100C900084F8450084F83D00002010BD08B50068C8
:100CA0000649884208D10648C16941F00201C16184
:100CB000C06900F00200009008BD00000004004080
:100CC0000010024010B50446022249B104290ED09A
:100CD000082913D094F84100012816D0012010BD36
:100CE00094F83E000128F9D184F83E200FE094F8F2
:100CF0003F000128F2D184F83F2008E094F840003A
:100D00000128EBD184F8402001E084F84120012241
:100D1000206800F0B3FA0F492068884203D1426C82
:100D200042F4004242642068884208D0B0F1804F0B
:100D300005D00949884202D00849884204D1816817
:100D400001F00701062903D0016841F001010160AB
:100D5000002010BD002C01400004004000080040AD
:100D60007047000070B5026804461068D168536986
:100D700010F00F0F52D003F0010501F490762E43CE
:100D80005FD0C20705D0CA0503D5E26B42F001026D
:100D9000E263420705D5DA0703D0E26B42F00202B4
:100DA000E263820705D5DA0703D0E26B42F0040262
:100DB000E263020707D501F020022A4303D0E26B69
:100DC00042F00802E263E26B002A33D0800604D5C9
:100DD000880602D5204600F017FB20684069E16BC9
:100DE000C0F38010090700D428B3204600F0FEFAB3
:100DF0002068416949061AD5416921F040014161E5
:100E0000606BA0B12D494163606BFFF7B9F9002811
:100E100010D0606B416BBDE870400847830610D569
:100E20008B060ED52046BDE8704000F0EDBA204696
:100E3000FFF796FF70BD2046FFF792FF0020E063AA
:100E400070BD03062BD50B0629D594F8390021284F
:100E5000F6D1A068B0F5805F01D12069B0B1206AF9
:100E6000411C2162216800784860E08C401E00042B
:100E7000000CE084E4D12068C16821F08001C160E9
:100E80002068C16841F04001C16070BD206A0088DF
:100E9000C0F308005060206A801C2062E5E740062D
:100EA000F3D54806F1D5D168204621F04001D16044
:100EB000202184F8391000F0C9F870BDDD13000856
:100EC00070B5040004D094F83900002510B106E094
:100ED000012070BD84F83850204600F023F824200B
:100EE00084F839002068C16821F40051C1602046AF
:100EF00000F0D0FA2068016921F490410161206876
:100F0000416921F02A0141612068C16841F4005122
:100F1000C160E563202084F8390084F83A0000209D
:100F200070BD000030B585B0002400940194029497
:100F300003940068184988422CD11848816941F40B
:100F400080418161816901F480410491816941F0AE
:100F5000040181618069124D00F0040004904FF497
:100F600000700090022001900320039069462846FB
:100F7000FFF77CF92815CDE900046946284602945C
:100F8000FFF774F9002211462520FFF7D1FA25203A
:100F9000FFF7C0FA05B030BD003801400010024034
:100FA0000008014090F83A30202B22D1F9B1F2B17B
:100FB00090F83830012B1CD081628285C2850021D7
:100FC000C163222280F83A2080F838100168CA688C
:100FD00042F48072CA6001684A6942F001024A61C3
:100FE0000068C16841F02001C16000207047012005
:100FF000704702207047000000680F4988421AD1EC
:101000000E4801781C2911D18178427801EB022128
:101010000B4A89B251800379C07803EB002083B278
:10102000084893800268516300688363052203497E
:101030000548FFF7B7BF704700380140180000208F
:1010400000000020240000206C0000207047FEE714
:1010500070B586B000200090019002900390234864
:10106000816941F020018161816901F020010491D1
:10107000816941F008018161816901F008010491F1
:10108000816941F0040181618069194E00F004001A
:101090004FF410650490012229463046FFF7D6F937
:1010A0000320009013480224CDE901046946124848
:1010B000FFF7DCF81120CDE900500120CDE9020452
:1010C00069463046FFF7D2F8002211460620FFF7A6
:1010D0002FFA0620FFF71EFA002211460720FFF71D
:1010E00027FA0720FFF716FA06B070BD001002407D
:1010F0000008014000002110000C014010B58AB02A
:10110000002407941C2168460894FFF712F81D4834
:101110001B4901600721C0E9011444F61F61C0E9C1
:1011200003148461FFF78DFD08B1FFF727F80794DA
:1011300007A914480894FFF7BDFC08B1FFF71EF893
:101140006020009040F24C40CDE901040022694645
:101150000C480494FFF712FD08B1FFF70FF840F2B6
:1011600046500190042269460648FFF707FD08B182
:10117000FFF704F80348FFF7D1FC0AB010BD0000E8
:1011800000040040240000200C4810B50A4901600A
:101190004FF4E1314160002181600C22C160C0E95F
:1011A00004128161C161FFF78BFE002803D0BDE806
:1011B0001040FEF7E3BF10BD003801406C00002076
:1011C000FEE7704770477047FFF74CB910B590B015
:1011D00028216846FEF7ADFF14210AA8FEF7A9FFF3
:1011E0000220009001200490102000240590079414
:1011F0006846FFF7BBFA0F20CDE90A040C940D9462
:1012000000210AA80E94FFF7C5F910B010BD704771
:10121000F0B50268164B174C174D4FF080479842B7
:1012200005D0B84203D0A04201D0A84203D122F099
:1012300070064A683243984205D0B84203D0A042B3
:1012400001D0A84203D122F44074CA6822434C69F9
:1012500022F08002224302608A68C2620A688262C7
:10126000984201D10969016301214161F0BD00008B
:10127000002C0140000400400008004010B501F0BF
:101280001F030121046A99408C430462016A9A4059
:101290001143016210BD000030B5026A22F0010264
:1012A0000262026A4368846924F073050C682C4367
:1012B00022F002058A682A430A4DA8420BD122F087
:1012C0000805CA6823F440732A434D6922F00402DA
:1012D0001D438B692B43436084614968416302620B
:1012E00030BD0000002C014030B5026A22F010022F
:1012F0000262026A436884690D6824F4E64444EAA1
:1013000005248D6822F0200242EA05120B4DA84206
:101310000ED1CD6822F0800242EA05124D6923F415
:10132000406343EA85038D6922F0400243EA850366
:101330004360846149688163026230BD002C0140D2
:1013400030B5026A22F480720262036A4268C4699C
:1013500023F4007324F073050C682C438D6843EA72
:1013600005230C4DA8420ED1CD6823F4006343EA57
:1013700005234D6922F4405242EA05128D6923F497
:10138000806342EA05124260C4614968C163036236
:1013900030BD0000002C014030B5026A22F48052BA
:1013A0000262046A4268C3690D6823F4E64343EAB3
:1013B00005238D6824F4005444EA0534064DA84200
:1013C00004D14D6922F4804242EA85124260C36131
:1013D00049680164046230BD002C014010B5406AC8
:1013E0000021C185C184FFF7BBFC10BD0168CA683C
:1013F00022F49072CA6001684A6922F001024A61CF
:10140000202180F83A10704710B590F83A10222940
:1014100001D0022010BD82684FF480539A4201D15E
:10142000016921B1816A9A421BD04AB10AE002687F
:10143000816A5268C2F308020A80816A891C08E046
:10144000026972B10268526802F07F020A70816A12
:10145000491C8162C18D491E0904090CC18503D054
:1014600016E002685268F1E70168CA6822F02002BB
:10147000CA600168CA6822F48072CA6001684A6959
:1014800022F001024A61202180F83A10FFF7B4FDF2
:10149000002010BD70B5044600680169E26821F4BF
:1014A0004051114301612169A06808436169084303
:1014B0002168CA6841F20C639A430243CA602068FB
:1014C0004169A26921F44071114341611E492068BC
:1014D000884202D1FFF704F901E0FFF7F1F800EBD1
:1014E000C00101EB0012606864218000B2FBF0F3E0
:1014F000B3FBF1F36FF018067343B2FBF0F5B2FBE8
:10150000F0F605EB8305322303EB0515B5FBF1F58A
:10151000B6FBF1F605F0F00505EB0615B2FBF0F6AB
:10152000B2FBF0F0B0FBF1F06FF01802504306EBA5
:10153000800003EB0010B0FBF1F0216800F00F0019
:101540002844886070BD0000003801400148FFF762
:1015500009BC00006C000020FEE70907090E002806
:1015600004DB00F1E02080F80014704700F00F0069
:1015700000F1E02080F8141D704702E008C8121F37
:1015800008C1002AFAD170477047002001E001C16C
:10159000121F002AFBD17047FEF76CFFFFF716FE03
:1015A000FFF756FDFFF7AAFDFFF7EEFD05221E49E6
:1015B0001E48FFF7F7FC00211D48FFF783FB0421BD
:1015C0001B48FFF77FFB1B4E1B4C00274FF4807519
:1015D0004FF400684FF4FA79012229463046FEF7AD
:1015E00035FF2078012805D127700022414630467A
:1015F000FEF72CFF60780128EED16770012241468A
:101600003046FEF723FF4846FEF706FE0022294635
:101610003046FEF71BFF6420FEF7FEFD012229463F
:101620003046FEF713FFD7E7180000206C000020BB
:1016300024000020000801400000002000000000FD
:101640000000000001020304060708090000000072
:1016500001020304741600080000002018000000B6
:101660007A1500088C160008180000209804000065
:101670008A150008000000000000000001000000C2
:0C16800010000000000000000024F40036
:04000005080000ED02
:00000001FF
